S0110000696E746572727570742E7372656326
S11300000C942A000C9463000C9480000C949D00C2
S11300100C9447000C9447000C9447000C94470040
S11300200C9447000C9447000C9447000C94470030
S11300300C9447000C9447000C9447000C94470020
S11300400C9447000C9447000C9447000C94470010
S11300500C94470011241FBECFE5D8E0DEBFCDBF0E
S113006010E0A0E6B0E0E8E7F1E002C005900D92F0
S1130070A036B107D9F710E0A0E6B0E001C01D92A8
S1130080A036B107E1F70E9449000C94BA000C9421
S113009000008FB780688FBF78948BB780628BBF66
S11300A08BB780648BBF8BB780688BBFBA988A98F4
S11300B08B988D9A8E9A8F9A85B78D6085BF84B7F9
S11300C08F7B84BFFFCF1F920F920FB60F92112424
S11300D08F939F93AF93BF93959A8FEF99E6A8E17F
S11300E081509040A040E1F700C000009598BF9176
S11300F0AF919F918F910F900FBE0F901F90189505
S11301001F920F920FB60F9211248F939F93AF9368
S1130110BF93969A8FEF99E6A8E181509040A04052
S1130120E1F700C000009698BF91AF919F918F9125
S11301300F900FBE0F901F9018951F920F920FB63D
S11301400F9211248F939F93AF93BF93979A8FEF3E
S113015099E6A8E181509040A040E1F700C000007A
S11301609798BF91AF919F918F910F900FBE0F9071
S10B01701F901895F894FFCFCD
S9030000FC
